:100000000C947A060C9497240C9470240C94A206F9
:100010000C94A2060C94A2060C94A2060C94A206C0
:100020000C94A2060C94DD250C94A2060C94A20656
:100030000C94A2060C94A2060C94A2060C94A206A0
:100040000C9426240C94A2060C94A2060C94A206EE
:100050000C94A2060C944F260C94A2060C94A206B3
:100060000C94BE240C94A20600000000240027007B
:100070002A0000000000250028002B0000000000DE
:1000800023002600290004040404040404040202DA
:100090000202020203030303030301020408102007
:1000A0004080010204081020010204081020000012
:1000B0000008000201000003040700000000000027
:1000C00000005D0003020303010405070800FF07A9
:1000D000FF0700012E025B0371200540A4002107E9
:1000E000799418A20022075BA6482C01230E7DB448
:1000F0002925C9A05406A5942400240B7DB4CA0662
:100100007110072D02250A7FC44EB2B45B1203267C
:100110000C7EBCD1A2362D4AB46809270559961821
:1001200028087BA44A4AB50229097BA4C84A95122B
:10013000002A0CEFC4C92AD130444956012B0AEDDC
:10014000B40AA3410A23002C07DA9B4914002D05A9
:10015000CEBD382E055194102F077FC44EFB0C30B6
:10016000097DB459326FC90231097DB4CAC44E83C6
:1001700000320A7DB459B2306B1B04330C7DB418C5
:10018000D23019C2705000340C7DB4CBA4A4940CAE
:100190005A9800350A7DB4B8AEA1962C00360C7D75
:1001A000B459327148322D590037097DB418C4ACA6
:1001B000D804380C7DB459322D59322D5900390CE0
:1001C0007DB459322D19422D59003A06E194880226
:1001D0003B07F29B4913053C077CAC8B1A1B3D0780
:1001E0005DB518D4413E087CAC089BDA003F0B7D1E
:1001F000B459B230AB431100400F7FC4199454522C
:10020000948A32ECC0A000410B7DB459326D183293
:100210005B00420D7DB418924C1B944C1B140043A0
:10022000097DB419C4AE4300440A7DB41892CCDBF6
:10023000A000450B7DB438864312868300460A7DB4
:10024000B4388643121601470C7DB4593231193245
:100250002D5900480A7DB4C86CC390D9024906796B
:100260009438044A097DB4ECA8250B004B0C7DB4EE
:10027000C8A4A4A42551250B4C087DB4087B1C04FC
:100280004D0B7FC448B7A52245AA354E0C7EBC084D
:10029000372592126D14034F097DB459326FC9028C
:1002A000500B7DB418924C1B94B008510B7DB4597F
:1002B0003297448A9400520C7DB418924C1B94528D
:1002C000250B530A7DB4593275D5920554097DB476
:1002D00018A4B0270055097DB4C87C4B16005609F8
:1002E0007DB4C8BC25B508570B7FC4489D22A5B274
:1002F000AD01580B7DB4C8B4A456A96901590A7D53
:10030000B4C86C492D2C015A097DB418C4ACE32043
:100310005B087BA418A24E035C0E7FC4C8811CC876
:10032000811CC8811C085D087BA4983A0D015F06FA
:100330004FC43804610A6DB45993414B8600620B77
:1003400075B408C321C9B4410163086CAC19B2E2A9
:1003500000640A75B4AC0C9A960C01650A6DB45928
:10036000B241498700660A74AC52A221C94A0067AB
:100370000BF5B359322D19C26401680A75B408C36C
:1003800021C96C01690771944886006A08FBA34A79
:10039000A3D2026B0974ACC84A43D2146C06729C97
:1003A000507A6D0B6FC4B84491144991546E086D26
:1003B000B41892CC2D6F096DB459325BB200700B3A
:1003C000F5B318924C1B943004710AF5B319342D0F
:1003D00019C20272096DB418924C2C0273086DB4E4
:1003E00019D48302740A75B48A0629AC26007508EC
:1003F0006DB4C8DC922176096DB4C86C492D0277C2
:100400000C6FC48822299222A9320C78096DB4C8D5
:10041000925AA516790BF5B3C86CC910260B007A51
:10042000086DB418B4B6417B0A7CAC52B228CC42F9
:10043000017C06799438047D0A7CAC10B330CA1272
:10044000097E07D6BD912C0000000004FFFF0000CC
:10045000100003020505010406141600FC12FA122E
:10046000FA00000000024D20050044142A1EAD6D64
:10047000B7F35299929E14C7A46DD0861D1CB64145
:100480004B1A15A7A4A7A532AF002C10272534833B
:10049000925A132DAA4559126A002E0BA744348391
:1004A000925A9341012F2854C6FA844127A4391A3D
:1004B000E7609CA375B48ED6D13A5A47EB681DAD60
:1004C000A375B48EC63918E7689D30E804303054FF
:1004D000C69AC3B38E6A39A94E4A7260C801398C74
:1004E000D53855E3548D53354ED53855E3540E6306
:1004F0001D187220C9497552A6A3F2F00831204890
:10050000C674431626A99CA4499AA4499AA4499A58
:10051000A4499AA4499AA4499AA4D1A0003230547B
:10052000C65AC3C79C12E5B424A725F12027691831
:10053000478318E7609C83710EC63918E7609C8377
:10054000718EC9C329A7E9449D980CBF0033365466
:10055000C67AC3839A13B29C94E4B4241ED6248D25
:10056000C368D08630C772200773200773240787BB
:10057000341A742055E3541E669D98E4A42C27A4D5
:10058000C3830634325346FAD830E4600EE4508E0A
:10059000E4480EE5408EC569AB1AA6499AA5511AE2
:1005A000A5599AC483BAD3749A4E4B8683AA836999
:1005B0008ED6E14102353053463AC30725A7E934C8
:1005C0009D260F0725CDD178B8E51425A725C36B47
:1005D0000E87391C0E430E84EA30A43A2DC94975A2
:1005E00042383C4800363054C67AC3C79C12E5A452
:1005F00024A725F1F092E6703C1CB29C54A725F18B
:1006000030AB71AAC6A91AA7F230EBC4242765390A
:10061000211D1E3400372C54C63AC32F395127EA06
:10062000C46478CEC13807E31C8C7330CED13A5AFB
:1006300087D31CADC3698ED6E13487D39C30E810D4
:1006400000383154C67AC3839A13B29C5427558715
:10065000350AE3302B6769366C718ED609593AAC8E
:10066000491AA76A9CCAC3AC13939C94E584747816
:10067000D000392E54C67AC3839A13B29C94E444B2
:100680007998D53855E3548D537998756292D3A2F1
:10069000E13587D3E1AB4E4B725A9413C4E1410468
:1006A0003A12C7453483925A9341E73428A9351941
:1006B000140000000004FFFF0000410003020404D6
:1006C0000204050C0C00FF09FD0AFE0000000000FA
:1006D000DF200500A2052B0B77E65D5C1B862CAEA8
:1006E000012D0616F2C5012E062263C510300B96A9
:1006F000E2CD90847E4C8604310995A2C5D84F8303
:1007000000320B96E2CD9084625F8701330E96E251
:10071000CD908469694EC5644800340F96E29D9679
:10072000445DB2244B86314D00350E96E2C5214D15
:1007300007394DC5644800360F96E2CD90846AB201
:1007400068A231191200370B96E2C5310DD3625AF7
:1007500003380F96E2CD9084C66448426332240089
:10076000390F96E2CD9084C664505331191200447B
:100770000D9722C6208549EA633248004908932232
:10078000C512F565500C96E2C5A0848EC392560141
:10079000530F96E2CD90846A3CC4A9980C09005688
:1007A0000F9722466A4DB228AB84491A67000000B1
:1007B0000004FFFF210317B95F4F0E24D1540B73C0
:1007C0002047722447722847B274014EAE1CCC5E9B
:1007D000773ABCA5E930E494E1A0E450120D5298B8
:1007E000E540168751220F4F111DCC5E5F1DC8E2F8
:1007F000304E8621122BD99AAD51528C926212D56D
:10080000B45218024F4E1BCC5E5F2A26431A55A3E2
:10081000A2544BA261885AA36AD44B5334491D5049
:100820005C1DCC5E5F1D08D36418A41C9386A514C0
:1008300066C93048491C45C39676DB00507F1FCC03
:100840005E5F12D5A2A4965686415162251AB61C47
:100850004C86410AE3AC6518A46A00517319CB5E5B
:10086000575ACB81241DCE39960E073587921CC866
:10087000D2920E0851B71CCC5E779AAA59144661E1
:100880002865529826C310E940560A43B58E660083
:1008900051C622CC5E4798A4591426C930644994A5
:1008A00026521A0D8B1685D9306551984561360C44
:1008B000690C52A024CC5E5F0EE6C8302443162596
:1008C000511625511625511625512D896A49544B2B
:1008D000A2244C064D2A538B1BCC5ED7708872B075
:1008E0001CC6619C0C4316C6611296AA51358C86B3
:1008F0000354111ACA5F678EC4C3414774441A2255
:10090000A92495A421D21139D18104542619BB5EA2
:10091000C783A823AD5149CBD4301A86300DD3708C
:1009200018C2340257FA19CB5E5F6D3868E541CEC4
:10093000E241CEB2E120352983A2A6C3415C4F1D1E
:10094000CC5ED770CB816CB82561A93A1CA2D6A821
:100950003A1C922C0AA3AC1466005E551CCB5E5F59
:100960006D3868D56108D37018C2248B8683D4345F
:100970001CA4C62891005EA61ECC5E3F100F87A85F
:10098000160E87A81646839883C9306451564CC208
:10099000708BB6015F001CCC5ECF7048B31CC87270
:1009A00020CB812C1B1EB31CC8E2300ED3629C01ED
:1009B000624B18CB5EF7100D3A9663F170CEB174AE
:1009C00038A839962375280662A521CC5E57346C69
:1009D00051984561324C629423D1B029A5644AA252
:1009E0002C4A8A512D89925A6663A51FCC5E575AAC
:1009F0001A8628AB0C521246C310A5A9321CC22875
:100A00002B85A1968449961965B917CC5E6F8EA681
:100A1000C3630EE6E0308769C7380B932C0E01657F
:100A2000CB22CC5E57980359383C6539B00C5392B1
:100A30004595D6A4322451528C9262A46851120D6D
:100A40000165F61CCC5E3F140D69548DA2E110A522
:100A5000D1906451FF351AD2A896E45806662F1B30
:100A6000CC5EDF3087F13087F1B05386E71C898692
:100A700034CA81A4AA0D4300672A18CB5E6F8EC5C5
:100A8000C339C7D2E1A0E6D00E24D5A8A4656A0A6E
:100A9000673A21CC5E570E66439845D1A044611653
:100AA00065534D29559A2A5914465912D592280949
:100AB0000767C41ECC5E570E46C310A5D9F0D449B3
:100AC000892A968A12251525D2A46A548D8A02682D
:100AD000211BCC5E5718A7A5E1250AB39A92264A96
:100AE000A9D25409D5C6248C34016E2921CC5E4F7D
:100AF00036885196038354C92AC92046599883C918
:100B0000302452D25469AA3425C3016E9025CC5E9C
:100B10004F340C5292E5401466C92055B24A3268EF
:100B200049AD920C8A948549949492524589A400C7
:100B300070D922CC5E579603D9A025B524519A923C
:100B4000344BC2244C36291BB4A624CAA2CAA0A482
:100B5000590270ED21CC5E579603593A248398458B
:100B6000A122455B1446498B12453A9C44B5A82501
:100B70008B2A00753519CB5F678EC5C3292B65A5F8
:100B8000E19495B2D27009D3304D8701772026CCFD
:100B90005EEFB00C499844499844C9B00C4994455B
:100BA000499445C97050A22C4AA22C4AB2645034D0
:100BB000B5007AEF20CC5E4F9C46A54189AAC320A0
:100BC000E550920C43528BA361882A4D4352D9922F
:100BD000D6507F6E1BCC5ECF70883A0D87381E1EB4
:100BE000736818C4381CA4301BC2381A1E886517D5
:100BF000CC5E4F9CD6062D0ED3544CB2241A23A59E
:100C00001655FB0D8B661DCC5ECFB0A4513424C3AA
:100C1000D2A730E9341C74CA30E4B46148ABC310C5
:100C2000018F6C1DCC5E57DA36288316A6499626AE
:100C3000C9F09223D1208EC9902569A896008FC74C
:100C40001FCC5E4F0E8471980C830EE540166D51DB
:100C50009845611C56C2344C72241B060190062034
:100C6000CC5E4F56CC923419061DC891A8B244B53B
:100C70006418B224AA85711627E56C180491CD1A60
:100C8000CB5E3FA00D3B940E07A97118C2A8380C8B
:100C900039100FE774380894C11CCC5E4F1C56C243
:100CA00021A9A583324C69D3F096864998444928F6
:100CB00065A53495F421CB5E4F340C510EE8903489
:100CC0004852164959240D92944552164983A4035B
:100CD000898E2400987A1BCC5E4F960C4A5BA51433
:100CE000269541E996F4FFFFFF14464931C90200F9
:100CF0000000502611241FBECFEFD8E0DEBFCDBFCD
:100D000013E0A0E0B1E0ECE0F6E702C005900D9240
:100D1000A834B107D9F726E0A8E4B3E001C01D92DA
:100D2000AD36B207E1F716E0CAE7D6E004C0219776
:100D3000FE010E94A739C937D107C9F70E94F926D9
:100D40000C94043B0C940000662329F06A3019F0DF
:100D5000862F90E008958FEF9FEF0895CF92DF9256
:100D6000EF92FF920F931F93CF93DF93EC01842FA9
:100D70008770E1E0F0E0082E01C0EE0F0A94EAF778
:100D80003E2F7E0193E7E90EF11CD7019C9110E004
:100D9000923018F41E2F913029F150E0487FE8ADD1
:100DA000F9ADC880D980D60150969C91949F60017E
:100DB000959FD00C11246C0D7D2D711DDF01A60FA8
:100DC000B71F011115C08C91812B83278D93215062
:100DD000D1F7DF91CF911F910F91FF90EF90DF90AE
:100DE000CF90089530E0D9CF110F330F222389F32C
:100DF0009C91912B93279C938F5F87702150811139
:100E0000F3CF9CADA90FB11DF7019081923028F46A
:100E1000913009F031E011E0E9CF31E0E7CF80E037
:100E2000089580E00895CF93DF93CCEED5E09BAF9B
:100E30008AAFDC01ED91FC9180EF95E00995EAAD78
:100E4000FBAD0280F381E02D80EF95E0DF91CF9143
:100E50000994809363060895CF93DF9348EE53E09F
:100E600060E070E04093DC045093DD046093DE04A6
:100E70007093DF049093DB048093DA04A0E7B0E082
:100E80008C918E7F8C93E0EBF0E080818C7F80836F
:100E9000E1EBF0E08081877F8083C6EBD0E0888142
:100EA0008F7D88838C918D7F8C93808184608083FB
:100EB00080818C7F808386E090E09093D90480933A
:100EC000D804DF91CF9108959B01DC011896ED9134
:100ED000FC9141E067E109948091D5049091D6049A
:100EE00001969093D6048093D5040895833081F0C1
:100EF00028F4813099F08230A9F008958730A9F064
:100F00008830C9F08430B1F4809180008F7D03C0B7
:100F1000809180008F7780938000089584B58F77CB
:100F200084BD089584B58F7DFBCF8091B0008F770D
:100F30008093B00008958091B0008F7DF9CFCF935A
:100F4000DF93282F30E0F901E255FF4F8491F9013A
:100F5000E656FF4FD491F901EA57FF4FC491CC23D5
:100F6000A1F081110E947607EC2FF0E0EE0FFF1F39
:100F7000E458FF4FA591B491EC91ED2381E090E00E
:100F800009F480E0DF91CF91089580E090E0FACFFE
:100F90001F93CF93DF93282F30E0F901E255FF4FE5
:100FA0008491F901E656FF4FD491F901EA57FF4FBA
:100FB000C491CC23A9F0162F81110E947607EC2F43
:100FC000F0E0EE0FFF1FEE58FF4FA591B4918FB7E1
:100FD000F894EC91111108C0D095DE23DC938FBFFB
:100FE000DF91CF911F910895DE2BF8CFCF93DF9340
:100FF00090E0FC01E656FF4F24918A579F4FFC0179
:1010000084918823C9F090E0880F991FFC01E8596A
:10101000FF4FA591B491FC01EE58FF4FC591D491BB
:1010200061110DC09FB7F8948C91209582238C9309
:101030008881282328839FBFDF91CF910895623054
:1010400051F49FB7F8943C91822F809583238C9321
:10105000E8812E2BEFCF8FB7F894EC912E2B2C93A9
:101060008FBFEACF8230910538F0880F991F880F23
:10107000991F05970197F1F708953FB7F89480916C
:101080004D0490914E04A0914F04B091500426B5A8
:10109000A89B05C02F3F19F00196A11DB11D3FBFB0
:1010A000BA2FA92F982F8827BC01CD01620F711D7F
:1010B000811D911D42E0660F771F881F991F4A9579
:1010C000D1F708958F929F92AF92BF92CF92DF9205
:1010D000EF92FF926B017C010E943D084B015C0185
:1010E000C114D104E104F104B9F00E943D0868196B
:1010F00079098A099B09683E73408105910580F34F
:1011000021E0C21AD108E108F10888EE880E83E0D8
:10111000981EA11CB11CE4CFFF90EF90DF90CF9000
:10112000BF90AF909F908F9008950F931F93CF9390
:10113000DF938C01C62F642FCC32E8F4CA3208F05A
:1011400041C0C83271F1C93209F442C080E0C034F4
:10115000D0F1CF73F801EC0FF11D868D8F3F91F127
:10116000C031E0F00E949F0721E0892B09F420E0C4
:10117000F801218F27C0CD3289F140F384EB8C0F29
:10118000823020F7CF73C00FD12FD11D8E8D41112A
:101190002EC061E00E94F60760E08E8D0E94C807B5
:1011A00011C0025E1F4FD0E0F80181918F018F3F87
:1011B00031F061E0D03108F062E00E94F607DF5FB5
:1011C000D63191F781E0DF91CF911F910F91089572
:1011D00070E090E080E00E946208F4CF85E090E04B
:1011E000433010F082E090E00E943208EBCF62E0E2
:1011F0000E94F607E7CF2FB7F894609149047091E9
:101200004A0480914B0490914C042FBF0895089597
:101210002091FC03260F3327331F21323105ECF4D4
:1012200020912204FC0190E080E0243069F082E00B
:101230000895A091FC032191AC0146525C4FA40F8C
:10124000B52FB11D2C930196861798F38091FC035E
:10125000680F6093FC0380E0089581E00895109288
:10126000220481E0809324041092230461E082E14F
:101270000E94C80761E083E10E94C807E9EBF0E043
:1012800080818E7F808380818D7F808388E48093BE
:10129000B80085E48093BC000895CF93DF9391E07C
:1012A0009093D9038823B9F0C091B800D091BA00C7
:1012B0008091BC008A7B8093BC0060E082E10E9448
:1012C000C80760E083E10E94C8070E942F09D093FD
:1012D000BA00C093B800DF91CF91089508950895A2
:1012E0000895E091D1038091D003E81730F4F0E045
:1012F000E055FC4F808190E008958FEF9FEF0895B7
:101300009091D1038091D0032FEF3FEF981748F4CD
:10131000E92FF0E0E055FC4F208130E09F5F909393
:10132000D103C90108958091D0039091D103891B05
:10133000990B0895CF92DF92EF92FF920F931F9334
:10134000CF93DF937C01CB018A012091AF0322234D
:1013500089F0EB016B01C40ED51ECC15DD0569F0DB
:101360006991D701ED91FC910190F081E02DC701C9
:101370000995F3CF642F0E940809C801DF91CF912E
:101380001F910F91FF90EF90DF90CF900895CF9332
:10139000DF931F92CDB7DEB769832091AF0322237D
:1013A000F9F02091D203203258F021E030E0FC0126
:1013B0003383228390E080E00F90DF91CF910895F6
:1013C0008091D303E82FF0E0E157FC4F998190839F
:1013D0008F5F8093D3038093D20381E090E0ECCFC2
:1013E00061E0CE0101960E940809F7CFDC011A9650
:1013F000ED91FC9130E020E00994DC011696ED912E
:10140000FC9130E020E040E069E10994DC011696AF
:10141000ED91FC9130E020E040E068E109949A0110
:10142000DC011696ED91FC91462F67E10994EF924D
:10143000FF920F931F93CF93DF931F92CDB7DEB729
:101440007C018B01D8016C91673129F150F4653131
:10145000A0F40F90DF91CF911F910F91FF90EF902B
:1014600008956A3118F16E3FA1F7F801418149836F
:1014700069E2C7010E94F6090BC0F8014181498366
:10148000D7011696ED91FC9130E020E0C701099557
:101490000E5F1F4FD7CFF80181818983AE014F5F67
:1014A0005F4F61E0C7010E940F0AF2CF0F5F1F4F2D
:1014B000D7011696ED91FC9130E020E040E0C701A5
:1014C0000995C0CF462FDC011696ED91FC9130E0D6
:1014D00020E066E10994462FDC011696ED91FC911F
:1014E00030E020E065E10994EF92FF920F931F93A3
:1014F000CF93DF93EC01042F7901693069F48BE914
:1015000091E0998388831C8A81E0DF91CF911F91BC
:101510000F91FF90EF9008956D3009F475C038F485
:101520006A3091F16B3009F468C080E0EECF6E3024
:1015300009F47DC06F30C9F70E94060AF7011381D4
:10154000110F110F110F6C89160F612F62956F70BB
:101550006061CE010E946B0A612F6F70CE010E9404
:101560006B0AF7016481606BCE010E946B0AF70180
:10157000408151816281660F660F660FCE010E9425
:101580000F0A0150A1F75DC0EA85FB8530E020E03D
:1015900040E068E20995EE81FF8130E020E040E024
:1015A00064E1CE01099541E06BE4CE010E94F609A9
:1015B000E881F981448169E2CE010E94F60940E0A8
:1015C0006BE4CE010E94F609E881F981448169E269
:1015D000CE010E94F60941E06BE4CE010E94F609BB
:1015E000E881F981458169E2CE010E94F60966E64B
:1015F00071E0CE010E94170A87CF61E671E04423B3
:10160000C1F36CE571E0F5CF411109C065E571E00A
:101610000E94170AE881F98182898C8B75CF6EE46C
:1016200071E00E94170AE881F9818389F6CF0E9450
:10163000060A61E8CE010E946B0A602FCE010E946B
:10164000620ACE010E94FD095FCFDC011896ED9180
:10165000FC9130E020E040E069E10994DC0118965B
:10166000ED91FC9130E020E040E068E10994CF93F7
:10167000DF931F92CDB7DEB76983BE016F5F7F4FE7
:101680000E9464070F90DF91CF910895EF92FF922F
:101690001F93CF93DF93EC01162F7A010E942E0B3C
:1016A00060E4CE010E94370BE885F9859701412F50
:1016B00067E1CE010995CE01DF91CF911F91FF9097
:1016C000EF900C94250BEF92FF921F93CF93DF9333
:1016D000EC01142F7901663181F138F4643109F499
:1016E0004BC0653179F080E022C06831C9F150F11A
:1016F0006931C9F780918E03882391F1CE010E9450
:10170000250B2EC080918E03882319F0CE010E94F4
:10171000250BCE010E942E0B60E0CE010E94370BFC
:10172000612FCE010E94370B81E080938E03DF9101
:10173000CF911F91FF90EF900895642F0E94370B77
:1017400081E0F5CF80918E03882319F0CE010E94AD
:10175000250BA701193138F4612FCE010E94460BE9
:1017600010928E03EDCF68E1CE010E94460B185116
:1017700088E1E80EF11CEDCF8E898F3F11F488E7E8
:101780008E8BE885F9859701412F64E1CE01DF91C9
:10179000CF911F91FF90EF900994FC016623D9F13E
:1017A0006A30C9F1808D811125C06C3F48F085E019
:1017B000808F617070E0738B628B2EEF3FEF29C0DA
:1017C000683F20F084E0808F6370F4CF603F20F0AA
:1017D00083E0808F6770EECF603E20F082E0808FE4
:1017E0006F70E8CF262F30E0603C98F081E0808F6A
:1017F0006F71E0CF8150808F2289338996E0220F6C
:10180000331F9A95E1F76F73262B338B228B81114F
:10181000D4CFC90108952FEF3FEFFBCF0F93DC0129
:10182000FC01EE5BFF4F9081941B492F3197908113
:10183000961B692F01110EC04150621BDE968C91E0
:10184000DE97481BD496ED91FC91D597CD01099573
:101850000F910895013091F76150421BEFCF0F9324
:10186000DC01DE963C91DE97431BD496ED91FC9112
:1018700009950F910895FC01ED5BFF4F10823196A1
:10188000DC01AF5BBF4F2C91208331961082119603
:101890002C9112973C91231718F0422F431B408341
:1018A000FC01EA5BFF4FDC01DF968C91281B208353
:1018B0000895FC01ED5BFF4F10823196DC01AF5BB8
:1018C000BF4F2C9120833196DC01DF962C91208331
:1018D0003196805C9F4FDC018C9180830895CF937B
:1018E000DF93FC01A081B18182AD982F990F990FF0
:1018F000990F95AF50969C915097903208F09FE1C8
:10190000990F990F990F94AF23AD922F990F990FBB
:10191000990F96AF51963C915197682F620F772798
:10192000771F3617170614F4832F821B97AFEF012A
:10193000C05CDF4F880F880F880F890F888321963E
:1019400080EF888354968D919C915597813F9105A6
:1019500008F48883EE5BFF4F56968C918083DF916D
:10196000CF9108950C946F0C0C946F0C0F93DC01C5
:10197000222371F1FC0101112DC0EB5BFF4F80812F
:10198000481730F131968081481710F532979081D1
:1019900031978081260F2617C8F46917B0F42FEF0E
:1019A000290F8217A8F4681708F4682F291708F47C
:1019B000922F961BD696ED91FC91D7970480F581D6
:1019C000E02D292FCD01099503C0682F691748F331
:1019D0000F910895ED5BFF4F80816817C8F3319632
:1019E00080816817A8F73296908131978081240F03
:1019F000241778F4491760F42FEF290F821740F766
:101A0000481708F4482F291708F4922F941BD2CFB7
:101A1000482F4917E8F6F2CF0F93462F00E021E058
:101A2000682F80EF95E00E94B60C0F910895FF9209
:101A30000F931F93CF93DF93F82ED62F142FC22F1F
:101A400000FF0CC0622F6D1B842F8F0D0E940C0DA8
:101A50006C2F6F198D2F810F0E940C0D01FF0CC090
:101A60006C2F6D1B812F8F190E940C0D6C2F6F191D
:101A7000812F8D1B0E940C0D03FF0CC06C2F6D0F6E
:101A8000812F8F0D0E940C0D6C2F6F0D8D2F810FEC
:101A90000E940C0D02FF11C06C2F6D0F812F8F194A
:101AA0000E940C0D6C2F6F0D812F8D1BDF91CF913C
:101AB0001F910F91FF900C940C0DDF91CF911F910E
:101AC0000F91FF900895CF92DF92EF92FF920F93C4
:101AD0001F93CF93DF93E82ED62EC42FC22ED1E0D2
:101AE000D41BF42EF194FF0C022F262F482F6C2FBD
:101AF00080E00E94170D10E0D7FD04C0C150F394A0
:101B0000F394DF0D1F5F812F880F8F5FD80F0C2D8F
:101B10002D2D4E2D6C2F812F0E94170D1C1760F359
:101B2000DF91CF911F910F91FF90EF90DF90CF90B9
:101B30000895FF920F931F93CF93DF93182FC62F13
:101B4000F42ED62FD20FCD1306C0DF91CF911F9167
:101B50000F91FF90089500E02F2D4C2F612F80EF03
:101B600095E00E94B60CCF5FEECF0F93242F01E0DB
:101B7000462F682F80EF95E00E94B60C0F910895D4
:101B8000FF920F931F93CF93DF93C82FD62F142F5D
:101B9000F22E00FF10C041E0460F622F6D1B812F17
:101BA0008C0F0E94B50D41E04C0F6F2D6C1B8D2FDB
:101BB000810F0E94B50D01FF10C041E04D0F6F2D48
:101BC0006D1B812F8C1B0E94B50D41E04C0F6F2DBA
:101BD0006C1B812F8D1B0E94B50D03FF0EC041E0D1
:101BE0004D0F6F2D812F8C0F0E94B50D41E04C0FD2
:101BF0006F2D8D2F810F0E94B50D02FF13C041E0A4
:101C00004D0F6F2D812F8C1B0E94B50D41E04C0FA5
:101C10006F2D812F8D1BDF91CF911F910F91FF9021
:101C20000C94B50DDF91CF911F910F91FF90089506
:101C3000CF92DF92EF92FF920F931F93CF93DF9398
:101C4000E82ED62EC42FC22ED1E0D41BF42EF19450
:101C5000FF0C022F262F482F6C2F80E00E94C00D12
:101C600010E01C1748F0DF91CF911F910F91FF906A
:101C7000EF90DF90CF900895D7FD04C0C150F3944A
:101C8000F394DF0D1F5F812F880F8F5FD80F0C2D0E
:101C90002D2D4E2D6C2F812F0E94C00DE2CFAF92C3
:101CA000BF92CF92DF92EF92FF920F931F93CF9349
:101CB000DF93E82EB62ED42EC22FF82EF00EC02EB3
:101CC000C60E1FEF140F180F101BDFEFD20FD60F29
:101CD000D01B22E0402F6C2D8F2D0E94180E21E08A
:101CE000402F6C2D812F0E94180E24E0402F6D2F65
:101CF0008F2D0E94180E28E0402F6D2F812F0E94FB
:101D0000180E1D2D101B101B133088F0F394125069
:101D1000AA24A394A00E2A2D412F6B2D8F2D0E9453
:101D2000990D2A2D412F6D2F8F2D0E94990D2C2F4B
:101D3000201B201B233088F0225061E06C0D4D2DBC
:101D40008E2DDF91CF911F910F91FF90EF90DF903B
:101D5000CF90BF90AF900C94990DDF91CF911F91D0
:101D60000F91FF90EF90DF90CF90BF90AF900895CC
:101D7000FF920F931F93CF93DF93D82F162FF42E3C
:101D8000C22F00E0242F462F682F80EF95E00E949D
:101D9000B60C01E02C2F412F6D2F80EF95E00E94B3
:101DA000B60C6FEF6F0D6D0F2C2F412F80EF95E06C
:101DB0000E94B60C4FEF4C0F410F00E02F2D6D2FFE
:101DC00080EF95E00E94B60CDF91CF911F910F91AB
:101DD000FF900895DC0118964C911897ED91FC91B5
:101DE0001197249130E0042E02C0359527950A946E
:101DF000E2F7842F860F883068F031961196FC93B5
:101E0000EE93E49198E0941B01C0EE0F9A95EAF7E7
:101E10002E2B885018968C938FEF9FEF01C0880F60
:101E20006A95EAF7809582230895FC01E60FF11D7B
:101E3000849190E0982F88273196E4918E0F911D20
:101E40000895CF93DF9320913706309138062817F5
:101E5000390709F490C0EC01909338068093370657
:101E6000FC018491809347063196E491E093480603
:101E7000FE013296E491E0934906FE013396E49127
:101E8000E0934A06FE013496E491E0934B06FE018E
:101E90003596E491E0934C06FE013696E491E0938A
:101EA0004D06FE013796E491E0934E06FE0138960A
:101EB000E491E0934F06FE013996E491E0935006D9
:101EC000FE013A96E491E0935106FE013B96E491BF
:101ED000E0935206FE013C96E491E0935306FE0126
:101EE0003D96E491E0935406FE013E96E491E09322
:101EF0005506FE013F96E491E0935606FE0170966A
:101F0000E491E093570661E1CE010E94150F909392
:101F100059068093580663E1CE010E94150F9093F5
:101F20005B0680935A0665E1CE010E94150F9093DF
:101F30005D0680935C068091370690913806892B68
:101F4000D1F08091540680935F06409155064093EE
:101F5000600690915E06992371F0913079F490912A
:101F60005606891714F490935F06809157068417DC
:101F700014F480936006DF91CF910895309151065B
:101F800020915306082E000C990B622F022E000C94
:101F9000770B630F711D37FD7A95861797071CF431
:101FA000320F30935F06241734F720936006E3CF97
:101FB000CF93DF93EC016BAFEEA9FFA90190F08105
:101FC000E02D0995EEA9FFA90280F381E02DCE0155
:101FD000DF91CF910994AF92BF92CF92DF92EF92AF
:101FE000FF920F931F93CF93DF9300D000D01F92E7
:101FF000CDB7DEB78C01DC01DA96AC90DA97DB96D0
:10200000EC90DB97ED91FC91B188FE2CD12CC12C8A
:10201000D801ED91FC9111978089D8962D913C9132
:102020001C82FD828B83B8E08B9FC00111248C9DA4
:10203000A0018D9D500D9C9D500D1124240F351F26
:102040003A832983D8011496ED91FC919E012F5F6C
:102050003F4F41E06FE0C8010995F3948F2D8E1931
:102060008A1528F4BFEFCB1ADB0AFB1488F20F9015
:102070000F900F900F900F90DF91CF911F910F91C4
:10208000FF90EF90DF90CF90BF90AF900895CF92E8
:10209000DF92EF92FF920F931F93CF93DF93EC01A8
:1020A000962F683109F44BC0B901993130F494315D
:1020B000C9F0973189F080E006C0993109F461C018
:1020C0009032C9F781E0DF91CF911F910F91FF907E
:1020D000EF90DF90CF90089550E080EE94E00E9462
:1020E0009A09F0CF8C859D85AE85BF85892B8A2B7B
:1020F0008B2B71F4E881F981A585B0E020EA36E800
:1021000041E050E00E940C376C877D878E879F8767
:102110001092D1031092D0031092D3031092D203E5
:102120000E942F098EE699E09093FB038093FA03B7
:102130008FE699E09093FF038093FE03C3CF2C8535
:102140003D854E855F8560E074E284EF90E00E94FB
:102150001F37205131094109510956954795379547
:1021600027952093B8008E8990E09595879591E00A
:102170009093AF0380938D031092D3031092D203F8
:10218000A1CFD091D203D13208F093C0C0918D037A
:102190000E943D086B017C0180912204811164C082
:1021A00082E08093220481E0809324048FEF809367
:1021B000210410924604D0934504AFE8B3E0E5E271
:1021C000F4E080E0D8137CC010924704809147046B
:1021D000CC0FC82BC093470480912304813009F0B1
:1021E00073C0109223040E943D086B017C01809112
:1021F00047048093BB008091D5039091D603A091B2
:10220000D703B091D803892B8A2B8B2B99F00E948E
:102210003D080091D5031091D6032091D70330914A
:10222000D8036C197D098E099F090617170728071F
:102230003907D8F18091BC0083FDD9CF85EC80931C
:10224000BC000E943D086B017C0180912204823019
:10225000E9F1809121048F3F61F180912104803266
:1022600041F18091210425C08091D5039091D6033E
:10227000A091D703B091D803892B8A2B8B2B09F41B
:102280008BCF0E943D080091D5031091D603209179
:10229000D7033091D8036C197D098E099F09061761
:1022A00017072807390708F077CF8091D4030E94D9
:1022B0004D091092D3031092D2031092AF0302CFB4
:1022C0009D9191938F5F7ECF85EEB9CF8091D5039D
:1022D0009091D603A091D703B091D803892B8A2B74
:1022E0008B2B09F4B2CF0E943D080091D5031091C9
:1022F000D6032091D7033091D8036C197D098E093C
:102300009F09061717072807390708F09ECFCDCF7A
:102310001092890310928A0310928B0310928C03FF
:10232000109288038091D8049091D9048093B200D0
:10233000E0E7F0E080818160808308958E508064C2
:1023400080937C0080917A00806980937A0083B7C3
:10235000817F826083BF20E190E080E033B731600D
:1023600033BF889533B73E7F33BF30917A0036FD57
:10237000FCCF4091780050917900840F951F215037
:1023800069F720917A002F7720937A0024E09695C0
:1023900087952A95E1F7089580910A0190910B01A4
:1023A0006AE070E00E9493392AE0269FC001279FCF
:1023B000900D11244497833C21E09207BCF4909344
:1023C000AC048093AB0480910401909105016AE014
:1023D00070E00E9493392AE0269FC001279F900D4C
:1023E00011249093AA048093A904089582EC91E0AB
:1023F000E6CF81E10E949E11BC0190E080E00E9446
:102400006A3820910D0130910E0140910F015091D9
:1024100010010E94213920E030EC4FE754E40E9483
:10242000C23720E030E040E05FE30E94503720E018
:1024300030E048EC52E40E9421392091840330912D
:10244000850340918603509187030E945137609322
:102450008403709385038093860390938703209170
:1024600083032F5F209383032A30C0F020E030E005
:1024700040E251E40E94C2376093B7047093B804FD
:102480008093B9049093BA0410928303109284034A
:102490001092850310928603109287030895CF92BD
:1024A000DF92EF92FF9284E10E949E11BC0190E0C6
:1024B00080E00E946A382CED36E443E05EE30E943F
:1024C000C23720910D0130910E0140910F015091C2
:1024D00010010E94213920E030EC4FE754E40E94C3
:1024E000C23720917F033091800340918103509146
:1024F00082030E94513760937F037093800380931F
:1025000081039093820320917E032F5F20937E03AB
:102510002A3008F43FC020E030E040E251E40E945D
:10252000C237209174043091750440917604509123
:1025300077040E94513760938804709389048093D4
:102540008A0490938B0410927E0310927F03109262
:1025500080031092810310928203C0901101D090E9
:102560001201E0901301F0901401A70196010E945E
:10257000BD3787FF14C023E333E343E550E4C701CD
:10258000B6010E941C3987FD0AC081E080938C044B
:102590001092D704FF90EF90DF90CF9008951092A3
:1025A0008C04F8CF4F925F926F927F928F929F929E
:1025B000AF92BF92CF92DF92EF92FF920F931F9351
:1025C000CF93DF9300D000D000D0CDB7DEB76B0142
:1025D0007C0180913B01873009F064C180915904EE
:1025E000813009F043C1A7019B0160E070E080E207
:1025F00091E40E9450370E943438709375036093C1
:10260000740380917403909175039E838D838B3F37
:102610009F4F0CF069C186E990E0A0E0B0E08093A4
:10262000320190933301A0933401B09335010091AE
:102630007803109179038D819E810E962D813E81C4
:102640008D9708F080C1B901330F880B990B0E9458
:102650006C386B017C019F7720E030E0A9010E947B
:102660001C3918160CF059C16D817E81601B710BED
:10267000072E000C880B990B0E946C384B015C01F3
:102680006D817E81600F711F072E000C880B990BE6
:102690000E946C3820E030E040E05FE30E94213986
:1026A00069837A838B839C83C801880F991F6D810E
:1026B0007E81681B790B8091760390917703680F78
:1026C000791F072E000C880B990B0E946C382B0188
:1026D0003C0120E030E0A901C701B6010E941C398D
:1026E000181624F0F7FAF094F7F8F09420E030E0B0
:1026F0004AEF54E4C701B6010E941C39C12CD12C09
:10270000760187FF06C0C12CD12C80E8E82E8FE32C
:10271000F82E2DEC3CEC4CE45FE3609116017091D7
:10272000170180911801909119010E942139A3018C
:1027300092010E9421392B013C012DEC3CEC4CE430
:102740005EE36091700370917103809172039091C8
:1027500073030E9421399B01AC01C301B2010E94A5
:1027600051372B013C0140927003509271036092EB
:1027700072037092730320911A0130911B014091F2
:102780001C0150911D01C701B6010E942139298108
:102790003A814B815C810E9421396B017C0120913F
:1027A0001E0130911F014091200150912101C5016E
:1027B000B4010E9421399B01AC01C701B6010E94FE
:1027C0005137A30192010E9451376B017C01609146
:1027D0009F047091A004072E000C880B990B0E9497
:1027E0006C38A70196010E9451370E9434387093CB
:1027F000A00460939F04072E000C880B990B0E9485
:102800006C386B017C0120E030EE4FEF54E40E9405
:102810001C3987FD8DC08D819E81181619060CF418
:1028200080C01092A00410929F041093770300932D
:1028300076032D813E813093790320937803269689
:102840000FB6F894DEBF0FBECDBFDF91CF911F91C1
:102850000F91FF90EF90DF90CF90BF90AF909F903F
:102860008F907F906F905F904F900895823039F4F1
:10287000A7019B0160E070E08FEA93E4BACE833059
:1028800039F4A7019B0160E070E882E294E4B1CEE4
:10289000843009F0B6CEA7019B0160E070E08BE6C2
:1028A00094E4A7CE20913701309138013A832983EF
:1028B000B90190E080E00E946A38A70196010E9469
:1028C00050370E943438709375036093740380917D
:1028D000AF049091B00429813A81281B390B3093C1
:1028E000B2042093B1048DCE8D819E8105964097D0
:1028F00028F480E991E0A0E0B0E091CE8D819E8146
:102900000B97449728F484EF91E0A0E0B0E087CEE5
:1029100080E293E0A0E0B0E082CEC12CD12C760121
:1029200056CF8FEF97E09093A00480939F047DCFC4
:1029300020E030E0A901C701B6010E94BD3718169A
:102940000CF473CF6ECF2F3131055CF7213F3F4F31
:1029500009F067CF6ACF8F929F92AF92BF92CF92CA
:10296000DF92EF92FF9260E08AE00E94C8070E9427
:102970004F120E94F91180917904813061F4E09145
:10298000F405F091F50530E020E0409115016EE08E
:1029900080EF95E0099561E070E080E090E00E94B2
:1029A000620880E10E949E11C0905A04D0905B049E
:1029B000E0905C04F0905D04BC0190E080E00E9437
:1029C0006A38A70196010E94503723E333E343E3BB
:1029D0005FE30E942139A70196010E9451376B01E4
:1029E0007C01C0925A04D0925B04E0925C04F092A5
:1029F0005D0420916A0430916B0440916C04509105
:102A00006D040E942139A70196010E942139A70176
:102A100096010E9421394B015C012091660430919E
:102A200067044091680450916904C701B6010E948F
:102A30002139A70196010E9421399B01AC01C501F2
:102A4000B4010E9451374B015C0120916204309126
:102A500063044091640450916504C701B6010E946B
:102A600021399B01AC01C501B4010E94513720916D
:102A70005E0430915F0440916004509161040E94B3
:102A800051370E943438072E000C880B990B0E9496
:102A90006C384B015C0160910C01062E000C770B29
:102AA000880B990B0E946C389B01AC016091B704B4
:102AB0007091B8048091B9049091BA040E94503783
:102AC0009B01AC01C501B4010E9451370E9434380A
:102AD000AB017093B4046093B30480917C03909134
:102AE0007D03840F951F90937D0380937C03209139
:102AF0007B032F5F20937B03283079F423E09595A7
:102B000087952A95E1F79093B0048093AF041092D3
:102B10007D0310927C0310927B038091D70488235D
:102B200009F498C080918C04811194C08091B604FE
:102B3000811190C0809137019091380103962091C6
:102B4000AF043091B004821B930B0797A8F48091D7
:102B5000C504811111C081E08093C40428E730E0EE
:102B60003093C3042093C2042CE231E03093C104BB
:102B70002093C0048093C50480913B01873009F005
:102B800062C0C701B6010E94D212E0909F04F0908B
:102B9000A004B70190E080E00E946A384B015C011C
:102BA00020E030EE4FEF54E40E941C3961E087FFD3
:102BB0000BC020E030E0A901C501B4010E94BD377F
:102BC00018160CF460C060E08AE00E94C8076091AB
:102BD0009F047091A004072E000C880B990B0E9493
:102BE0006C3820E030EE4FEF54E40E94C23720E012
:102BF00030E048EC52E40E9421390E943B38609357
:102C00008704C0905A04D0905B04E0905C04F0907C
:102C10005D048091D70420E030E04AE754E481115C
:102C200043C0C701B6010E941C3987FD67C081E01F
:102C30008093B604FF90EF90DF90CF90BF90AF905D
:102C40009F908F900895BA01550F880B990B0E94A1
:102C50006C3899CF1092A00410929F0410927903BF
:102C600010927803109277031092760382EC91E031
:102C7000A0E0B0E08093320190933301A09334013F
:102C8000B093350182CF81E28093800084E180930C
:102C900081008FEF97E09093890080938800F092F5
:102CA0008B00E0928A0093CFC701B6010E941C39C5
:102CB00087FD15C080917A038F5F80937A038A30F5
:102CC00008F4B8CF809170008E7F809370001092CE
:102CD0007A0381E08093B5041092D704ABCF20E053
:102CE00030E04AE754E4C701B6010E94BD3787FFD0
:102CF00005C01092B50410927A039CCF1092B604CE
:102D000099CF80913B01873049F08091D304909115
:102D1000D40401969093D4048093D3040895CF9261
:102D2000DF92EF92FF92CF930E94FB08C090550470
:102D3000D0905604E0905704F09058046C197D0927
:102D40008E099F09643171058105910508F459C008
:102D5000C1E0C093C40484E690E09093C3048093E0
:102D6000C20486E490E09093C1048093C0048091F3
:102D70003B01813009F062C082E00E949F072091F0
:102D80007B042817190609F042C080913701909101
:102D900038010A9690933801809337010E94CC1134
:102DA00040913701509138018091AB049091AC046F
:102DB0002091A9043091AA0484179507B8F530939F
:102DC0003801209337011092C5041092D604109256
:102DD000D5041092C8041092B5041092CC0410923D
:102DE000D4041092D3041092CE041092CD040E9409
:102DF000FB08609355047093560480935704909396
:102E00005804CF91FF90EF90DF90CF90089583E02A
:102E10000E949F0720917B042817190609F0BECF56
:102E200080913701909138010A97B4CF4217530728
:102E300050F69093380180933701C5CF823071F5F9
:102E40000E949F0720917B042817190681F4809126
:102E500086048111CCCF809182048111C8CFC093A8
:102E60008604809183048F5F80938304C0CF83E0C6
:102E70000E949F0720917B042817190609F0B7CFFD
:102E8000809186048111B3CF809182048111AFCFEC
:102E9000C0938204809183048150E6CF833009F08F
:102EA00057C18091800481111FC0C091810482E0CC
:102EB0000E949F0720917B042817190659F4CF5FC1
:102EC000C09381048091810484300CF43BC1109242
:102ED00081048DCF83E00E949F0720917B042817F7
:102EE000190681F7C150ECCF813009F061C082E052
:102EF0000E949F0720917B042817190649F48091AE
:102F00007F0420E030E040E85FE3882309F445C017
:102F100083E00E949F0720917B042817190621F463
:102F200080917F048823D1F082E00E949F07209146
:102F30007B042817190649F183E00E949F0720911E
:102F40007B042817190609F0BDCF80917F042DEC72
:102F50003CEC4CEC5DE3811105C0B4CF20E030E0E7
:102F600040E85FE360911E0170911F018091200194
:102F7000909121010E94503760931E0170931F01B0
:102F800080932001909321019DCF80917F0488231D
:102F900099F22DEC3CEC4CEC5DE360911E017091DC
:102FA0001F0180912001909121010E945137E4CFAF
:102FB000823009F061C00E949F0720917B0428178E
:102FC000190621F480917F04882311F183E00E9487
:102FD0009F0720917B042817190649F182E00E947F
:102FE0009F0720917B0428171906E1F183E00E94D6
:102FF0009F0720917B042817190609F063CF809161
:103000007F042DEC3CEC4CEC5DE3811118C05ACFF1
:1030100020E030E040E85FE360911A0170911B010D
:1030200080911C0190911D010E94513712C0809126
:103030007F048111D3CF20E030E040E85FE360916E
:103040001A0170911B0180911C0190911D010E9439
:10305000503760931A0170931B0180931C01909369
:103060001D0130CF80917F04882309F4BFCF2DEC60
:103070003CEC4CEC5DE3D0CF833009F023CF82E011
:103080000E949F0720917B042817190621F4809144
:103090007F04882319F183E00E949F0720917B041D
:1030A0002817190691F182E00E949F0720917B0466
:1030B00028171906E9F183E00E949F0720917B04FD
:1030C0002817190609F0FECE80917F04882309F4A1
:1030D000F9CE2DEC3CEC4CEC5DE31FC020E030E081
:1030E00040E85FE36091160170911701809118012B
:1030F000909119010E945137609316017093170146
:103100008093180190931901DDCE80917F04811185
:10311000CACF20E030E040E85FE360911601709193
:10312000170180911801909119010E945037E4CF46
:1031300080917F04882309F4BECF2DEC3CEC4CEC4D
:103140005DE3D0CF87FF53CE83E0809381044FCEE1
:10315000843009F07CC080917D0481111FC0C09132
:103160007E0482E00E949F0720917B0428171906A5
:1031700059F4CF5FC0937E0480917E0483300CF4B9
:103180004BC010927E0433CE83E00E949F072091B3
:103190007B042817190681F7C150ECCF813001F567
:1031A00082E00E949F0720917B042817190651F4A2
:1031B0008091390190913A014E9690933A01809313
:1031C0003901DACF83E00E949F0720917B04281702
:1031D000190691F68091390190913A014E97EDCF01
:1031E000823051F60E949F0720917B042817190610
:1031F00031F4809136018F5F80933601BDCF83E03B
:103200000E949F0720917B042817190609F0B4CF6C
:10321000809136018150F0CF87FF04C082E0809317
:103220007E04E5CD8091390190913A01883E23E0FA
:10323000920738F08EE190E090933A018093390143
:10324000D6CD4E9708F0D3CD87EE93E0F5CF8530FD
:1032500009F06CC080917904811124C082E00E9441
:103260009F07C0917C0420917B042817190651F414
:10327000CF5FC0937C0480917C0484306CF010920A
:103280007C04B5CD83E00E949F0720917B04281722
:10329000190689F7C150EDCF87FFA9CD83E0809350
:1032A0007C04A5CD813039F582E00E949F072091F2
:1032B0007B042817190679F4809115018B5F8093A0
:1032C0001501809115019EEF980F933080F485E0F1
:1032D000809315018CCD83E00E949F0720917B0491
:1032E0002817190671F7809115018550E8CF8111D3
:1032F0007ECD8FEFEDCF823009F079CD0E949F0710
:1033000020917B042817190639F480917A0491E002
:10331000892780937A046BCD83E00E949F072091D8
:103320007B042817190609F062CDEFCF863009F02B
:10333000FFC080917304811124C082E00E949F0726
:10334000C091780420917B042817190651F4CF5FAF
:10335000C09378048091780484306CF010927804E3
:1033600046CD83E00E949F0720917B042817190611
:1033700089F7C150EDCF87FF3ACD83E08093780481
:1033800036CD8130B9F582E00E949F0720917B0401
:1033900028171906B9F42AE037ED43E25CE360919F
:1033A0000D0170910E0180910F01909110010E940A
:1033B000513760930D0170930E0180930F0190932C
:1033C000100115CD83E00E949F0720917B042817F0
:1033D000190609F00CCD2AE037ED43E25CE3609179
:1033E0000D0170910E0180910F01909110010E94CA
:1033F0005037DFCF8230B1F50E949F0720917B04C8
:1034000028171906B9F42DEC3CEC4CEC5DE3609107
:1034100074047091750480917604909177040E94F1
:10342000513760937404709375048093760490937D
:103430007704DDCC83E00E949F0720917B0428174E
:10344000190609F0D4CC2DEC3CEC4CEC5DE360911A
:1034500074047091750480917604909177040E94B1
:103460005037DFCF833009F0C2CC82E00E949F0743
:1034700020917B0428171906A9F52DEC3CEC4CECA7
:103480005DE360911101709112018091130190919F
:1034900014010E94513760931101709312018093BF
:1034A000130190931401C0901101D0901201E0908B
:1034B0001301F090140120E030E040EF51E4C70127
:1034C000B6010E941C39181624F58DEC9CECACE476
:1034D000B0E48093110190931201A0931301B09373
:1034E000140185CC83E00E949F0720917B0428175C
:1034F0001906C9F62DEC3CEC4CEC5DE36091110132
:103500007091120180911301909114010E94503723
:10351000C2CF2DEC3CEC4CE450E4C701B6010E9454
:10352000BD3787FF64CC80E090E0A0EFB1E4D1CF5D
:10353000883009F068C080916F04811124C082E056
:103540000E949F07C091720420917B0428171906DE
:1035500051F4CF5FC09372048091720484306CF098
:103560001092720444CC83E00E949F0720917B0458
:103570002817190689F7C150EDCF87FF38CC83E0B3
:103580008093720434CC813011F582E00E949F0751
:1035900020917B042817190671F480910C018F5F2C
:1035A00080930C0180910C018D59873C08F41FCC4D
:1035B00010920C011CCC83E00E949F0720917B0499
:1035C0002817190679F780910C018150E9CF8330D3
:1035D00009F00DCC82E00E949F0720917B04281700
:1035E000190639F48091710491E089278093710460
:1035F000FECB83E00E949F0720917B0428171906C9
:1036000009F0F5CBEFCF873009F0F1CB8091590469
:10361000811124C082E00E949F07C0916E04209116
:103620007B042817190651F4CF5FC0936E04809174
:103630006E0487306CF010926E04D9CB83E00E9448
:103640009F0720917B042817190689F7C150EDCFF9
:1036500087FFCDCB86E080936E04C9CB813009F51E
:1036600082E00E949F0720917B042817190651F4DD
:10367000809104019091050101969093050180933A
:103680000401B5CB83E00E949F0720917B0428179B
:10369000190609F0ACCB80910401909105010197C6
:1036A000ECCF823001F50E949F0720917B04281700
:1036B000190651F4809106019091070101969093AB
:1036C00007018093060193CB83E00E949F0720911E
:1036D0007B042817190609F08ACB80910601909186
:1036E00007010197ECCF833009F582E00E949F0724
:1036F00020917B042817190651F4809108019091BC
:1037000009010196909309018093080170CB83E031
:103710000E949F0720917B042817190609F067CBA8
:1037200080910801909109010197ECCF843009F054
:103730005ECB82E00E949F0720917B042817190628
:1037400051F480910A0190910B01019690930B0125
:1037500080930A014CCB83E00E949F0720917B0459
:103760002817190609F043CB80910A0190910B01AB
:103770000197ECCFEF92FF920F931F93CF93DF93BC
:1037800061E088E00E94F6078091C404882321F15B
:10379000D0E0C0E00091C0041091C104C017D1076F
:1037A000C8F461E088E00E94C807E090C204F0908D
:1037B000C304C7010E94320860E088E00E94C80785
:1037C00001501109C017D10718F4C7010E9432082F
:1037D0002196E0CF1092C40480918C04811104C022
:1037E0008091B504882361F10E94FB0800916C036D
:1037F00010916D0320916E0330916F03601B710B6C
:10380000820B930B693E734081059105C8F081E0FE
:103810008093C40488E790E09093C3048093C2042B
:103820008CE291E09093C1048093C0040E94FB0855
:1038300060936C0370936D0380936E0390936F039A
:10384000809153048823D9F081E08093C40486E9F1
:1038500090E09093C3048093C20480ED92E0909333
:10386000C1048093C0041092530460E088E0DF91AB
:10387000CF911F910F91FF90EF900C94F6078091DC
:103880005204882391F381E08093C40486E990E098
:103890009093C3048093C20480ED92E09093C1049E
:1038A0008093C00410925204E0CFCF92DF92EF9247
:1038B000FF920F931F93CF93DF936C01EB017B017A
:1038C000E40EF51E10E000E0CE15DF0561F0699111
:1038D000D601ED91FC910190F081E02DC601099592
:1038E000080F191FF1CFC801DF91CF911F910F91E0
:1038F000FF90EF90DF90CF900895089590E080E0E2
:103900000895FC0101900020E9F73197AF01481BB1
:10391000590BBC018CEE95E00C94551C8F929F9234
:10392000AF92BF920F931F93CF93DF93CDB7DEB7C4
:10393000A1970FB6F894DEBF0FBECDBF19A24230DB
:1039400008F44AE08E010F5D1F4F842E912CB12C9C
:10395000A12CA50194010E941F37E62FB901CA01CD
:10396000EA30F4F4E05DD801EE938D01232B242B93
:10397000252B79F790E080E0109719F0CD010E9497
:10398000811CA1960FB6F894DEBF0FBECDBFDF91AC
:10399000CF911F910F91BF90AF909F908F900895FE
:1039A000E95CE1CF0C94811CBC0190E080E04AE02E
:1039B0000C948E1C2F923F924F925F926F927F9247
:1039C0008F929F92AF92BF92CF92DF92EF92FF922F
:1039D0000F931F93CF93DF9300D000D01F92CDB7EA
:1039E000DEB78C015C0124E0A20EB11CFC01E7589B
:1039F000FF4F0190F081E02DC50109959A838983DD
:103A00008E3F9F4F08F040C0F801E458FF4FF08010
:103A100048016BE7860E911CF401E080BE9701908F
:103A2000F081E02DC5010995F801EF5AFF4FE082C2
:103A300031968F0D808337978081918147962981B8
:103A40003A812F3F310511F008F0FAC0B3962136C4
:103A5000310540F469817A816134710538F0F801EB
:103A6000E459FF4F20813181820F931F9C012F5F0A
:103A70003F4FF9014491411121C01B82F401808123
:103A8000FB818F0FF401808381E090E00F900F9015
:103A90000F900F900F90DF91CF911F910F91FF909A
:103AA000EF90DF90CF90BF90AF909F908F907F90DE
:103AB0006F905F904F903F902F900895FC0144913C
:103AC00069817A814617170609F0B5C002960097FA
:103AD000A1F2B801615B7F4F7D836C83FB01918311
:103AE00080831086709660818C819D810E94EA0E91
:103AF000EC81FD818683F801E05AFF4F60818C8163
:103B00009D810E94EA0E782EEC81FD8187836801F9
:103B1000F7E7CF0ED11CF6019081EC81FD819287F1
:103B200081E0911180E0EC81FD818387F801EF59FC
:103B3000FF4F6080662D8C819D810E94EA0E382E99
:103B4000F801EE59FF4FF0806F2D8C819D810E940E
:103B5000EA0E482E8FEF8F0DEE24E394F12C97019F
:103B600002C0220F331F8A95E2F73A832983F801B6
:103B7000ED59FF4F5080652D8C819D810E94EA0E8A
:103B80005A94970101C0220F5A94EAF7821B8B8343
:103B9000EC81FD81868118160CF070CF6A9401C00B
:103BA000EE0C6A94EAF782818E19380E3282838194
:103BB000F9818F0F84198719EC81FD818383148229
:103BC00015829801235A3F4F3A83298378013EE5B5
:103BD000E30EF11CE981FA8160818C819D810E9454
:103BE000EA0E482EF70160818C819D810E94EA0EC9
:103BF000382EEC81FD8114816580542CEC81FD818F
:103C00002680211A818581110FC0628143818385BD
:103C1000F6018083222D521408F4252D460D610FE4
:103C200000E0C5010E94B60C521408F43CC05218C2
:103C3000639410E0E3CFF9012491820F911D16CF18
:103C4000F801E059FF4FC080D180C80ED91E76011F
:103C500060E0C7010E94150FC80ED91E62E0C701BF
:103C60000E94150FF4E0EF0EF11C29813A818217B2
:103C7000930770F3F601849190E0982F882731968E
:103C8000E4918E2B009709F4F8CE29813A81281708
:103C9000390719F4C60103961ACFF6013296E4915A
:103CA000CE0ED11CE7CF150DEC81FD81148365820A
:103CB000532CEC81FD812680211A6281438182850B
:103CC000F6018083222D521408F4252D460D610F34
:103CD00000E0C5010E94B60C521420F05218639403
:103CE00010E0E7CF150DEC81FD811483658261E062
:103CF000CF010E94EA0E81117CCFEC81FD8185818C
:103D000087150CF467CF8285F6018083B7CE4F927A
:103D10005F926F927F928F929F92AF92BF92CF925B
:103D2000DF92EF92FF92CF93DF936B017C01D42F50
:103D3000AC019B010E948E39882391F08DED91E0BA
:103D4000DF91CF91FF90EF90DF90CF90BF90AF9039
:103D50009F908F907F906F905F904F900C94811CFC
:103D600026013701E89477F82FEF3FEF4FE75FE741
:103D7000C301B2010E948E3981110DC02FEF3FEFB8
:103D80004FE75FE7C301B2010E94BD3718161CF46C
:103D900081EE91E0D5CF2FEF3FEF4FE75FE4C70112
:103DA000B6010E941C3918161CF485EE91E0C8CFAC
:103DB0002FEF3FEF4FE75FECC701B6010E94BD3721
:103DC00087FDF3CF20E030E0A901C701B6010E94D2
:103DD000BD37912C812C87FF0AC06DE28CEE95E0F7
:103DE0000E94DA1C4C01F7FAF094F7F8F094CD2F0A
:103DF000A12C60E070E080E09FE3AD1640F420E08D
:103E000030E040E251E40E94C237A394F6CFA7010C
:103E100096010E9451372B013C010E943B385B0107
:103E20006C014AE00E948E1C7C01E80CF91CDD2329
:103E3000A9F1C601B5010E946A389B01AC01C3011A
:103E4000B2010E9450374B015C016EE28CEE95E0AE
:103E50000E94DA1CE80EF91EC15000F120E030E0AB
:103E600040E251E4C501B4010E9421392B013C011B
:103E70000E943B384B01CB010E94D41CE80EF91E76
:103E8000B40190E080E00E946A389B01AC01C3015C
:103E9000B2010E9450374B015C01DECFC701DF91B8
:103EA000CF91FF90EF90DF90CF90BF90AF909F9019
:103EB0008F907F906F905F904F900895CF92DF9298
:103EC000EF92FF92CF93DF936C01990FEE08FF08FA
:103ED000F7FE19C06DE28CEE95E00E94DA1CEC0151
:103EE00066277727CB016C197D098E099F094AE067
:103EF0000E948E1C8C0F9D1FDF91CF91FF90EF9041
:103F0000DF90CF9008954AE0C701B601DF91CF91CD
:103F1000FF90EF90DF90CF900C948E1C85ED8093F6
:103F2000BC008091D5039091D603A091D703B091A6
:103F3000D8030796A11DB11D23E0B695A7959795C7
:103F400087952A95D1F72091BC0024FD03C01092DB
:103F5000220408954091D5035091D6036091D70370
:103F60007091D803452B462B472B69F30097A10589
:103F7000B10541F025E32A95F1F700000197A10969
:103F8000B109E1CF8091D4030C944D09FC01A081CB
:103F9000B18150962C9182AD38E0839FC0011124ED
:103FA000289FA001299F500D112470E060E080AD92
:103FB00091AD0C94FD3A1F93CF93DF93EC010E94D7
:103FC000EB0F1BAD8AAD180FE881F98181891817B5
:103FD00068F0EC81FD8130E020E040E060E1CE015E
:103FE000099580E0DF91CF911F910895FE01EC5873
:103FF000FF4F8081882319F0CE010E94C61F612FD8
:10400000CE010E94D80F81E0EDCFCF93DF93EC017A
:10401000FC01EC58FF4F8081882319F0CE010E94EB
:10402000C61F60E0CE01DF91CF910C94D80FFF92B4
:104030000F931F93CF93DF93EC01F62E0881198124
:10404000C8010E94D736F81621F06F2DC8010E94D2
:10405000DF36CE01DF91CF911F910F91FF90089530
:10406000EF92FF920F931F93CF93DF9300D0CDB7C2
:10407000DEB78C017B019A838983FB016081CE01CD
:1040800001960E9417200F5F1F4F1A830983F701C3
:104090006181CE0101960E941720C7010F900F90F9
:1040A000DF91CF911F910F91FF90EF9008950F93A3
:1040B0001F93CF93DF9300D0CDB7DEB78B019A83E8
:1040C0008983FB016081CE0101960E941720C801FF
:1040D0000F900F90DF91CF911F910F9108950F9343
:1040E0001F93CF93DF9300D0CDB7DEB78B019A83B8
:1040F0008983FB016081CE0101960E941720C801CF
:104100000F900F90DF91CF911F910F910895AF9273
:10411000BF92CF92DF92EF92FF920F931F93CF93B4
:10412000DF9300D0CDB7DEB78B016B0124E0C20E68
:10413000D11C7B015C01A61AB70AC5018E0D9F1D1B
:104140009A838983F70161917F01CE0101960E94D4
:104150001720EC14FD0489F7C8010F900F90DF9130
:10416000CF911F910F91FF90EF90DF90CF90BF9074
:10417000AF900895CF93DF93EB010E94D7368883E9
:10418000CE01DF91CF910895CF93DF93EB010E9491
:10419000D7368883CE01DF91CF9108950F931F9377
:1041A000CF93DF938C01EB010E94D7368883C8013F
:1041B00001960E94D7368983CE01DF91CF911F915E
:1041C0000F910895CF92DF92EF92FF920F931F937A
:1041D000CF93DF93EB017B0124E0E20EF11C8B0116
:1041E0006C01C61AD70AC601800F911F0E94D736EC
:1041F000F80181938F01EE15FF05A9F7CE01DF913C
:10420000CF911F910F91FF90EF90DF90CF90089585
:104210002F923F924F925F926F927F928F929F92D6
:10422000AF92BF92CF92DF92EF92FF920F931F93C4
:10423000CF93DF93CDB7DEB7AA970FB6F894DEBF62
:104240000FBECDBF88E0E6E4F1E0DE0151960190BB
:104250000D928A95E1F764E070E084E090E00E94BE
:10426000BC399EA38DA364E070E087E090E00E94DB
:10427000BC3998A78FA364E070E084E090E00E94CE
:10428000BC399AA789A764E070E084E090E00E94BE
:10429000BC399CA38BA364E070E080E190E00E94B5
:1042A000BC399E8F8D8F34E0C32E31E0D32EADA06C
:1042B000BEA020E1A20EB11C09A51AA5EDA0FEA08A
:1042C000412C512C40E8642E4FE3742ED7014D92BF
:1042D0005D926D927D927D01F601619171916F0108
:1042E000072E000C880B990B0E946C38D8016D9337
:1042F0007D938D939D938D01EA14FB0439F7EFA113
:10430000F8A5FA8FE98F9F01245E3F4F3C8F2B8FDA
:104310008F01D8011D921D921D921D928D01FE01EB
:1043200071961F01CDA0DEA0812C912C5401D601E5
:104330004D905D906D907D906D01A3019201C5013E
:10434000B4010E9451374B015C01F10161917191FF
:104350001F0196012450310938A32F8F072E000C1E
:10436000880B990B0E946C38A30192010E9421399D
:10437000AF8DB8A16D937D938D939C931397CE14BD
:10438000DF04A9F6F801349780829182A282B38279
:10439000EB8DFC8D0E171F0709F0BBCF2BA13CA1A5
:1043A00038A32F8F690130E1C30ED11C0BA11CA1D2
:1043B00089A59AA540969C8F8B8FD8011D921D923E
:1043C0001D921D928D01FE0171961F01E9A4FAA4B0
:1043D000812C912C5401D7014D905D906D907D9072
:1043E0007D01A3019201C501B4010E9451374B0127
:1043F0005C01F101619171911F0197012450310914
:104400003AA329A3072E000C880B990B0E946C3845
:10441000A30192010E942139A9A1BAA16D937D93B4
:104420008D939C931397EB8DFC8DEE15FF0599F6FC
:10443000F801349780829182A282B3820C151D0507
:1044400009F0BBCF4D8D5E8D405C5F4F2D8D3E8D55
:1044500090E080E0F901E80FF91FA98DBA8DA80F4F
:10446000B91FCD90DD90ED90FC90C082D182E282A8
:10447000F38204968031910569F7898D9A8D0496AF
:104480009A8F898F205F3F4F4217530709F72D8D71
:104490003E8D3A8F298F1C8E1B8EB12CA12CA98D9D
:1044A000BA8DCD90DD90ED90FC90E894F7F8150171
:1044B000BFEF2B1A3B0AE98DFA8DFAA3E9A3850118
:1044C0004101F3E08F16910409F1A9A1BAA1549614
:1044D0004D905D906D907C905797E89477F8A70188
:1044E0009601C301B2010E941C3918166CF0260116
:1044F0003701BFEF8B1A9B0AE9A1FAA17496FAA3C0
:10450000E9A373016201DDCF8401F3CF0A151B0516
:1045100009F44AC0AD8DBE8D2B8D3C8DA20FB31F0B
:10452000000F111F000F111FF801EE0FFF1FEE0FFC
:10453000FF1FAD8CBE8CAE0EBF1E90E080E04D9193
:104540005D916D917D91F501C080D180E280F38015
:104550009D0124503109F901C082D182E282F382A7
:10456000F50141935193619371935F0101968430FA
:10457000910529F7EF8DF8A180819181A281B38106
:104580002BA13CA1020F131FF801408151816281D0
:104590007381EF8DF8A14083518362837383F801A7
:1045A00080839183A283B3836F8C78A0F4E06F0E35
:1045B000711C80EFA82EBB24BA942B8D3C8DA21ABF
:1045C000B30A098D1A8D23014101780134E1E30E0C
:1045D000F11C6101F501EE0DFF1D8B8D9C8DE80F27
:1045E000F91FD80150962D913D914D915C915397B3
:1045F00060817181828193810E942139E98DFA8DD8
:1046000020813181428153810E94C2379B01AC01DC
:10461000D7016D917D918D919C910E945037F7014A
:1046200061937193819391937F01FFEFCF1ADF0A1A
:1046300024E0C216D10471F6D201CD90DD90ED9048
:10464000FD902D01FD013497FAA3E9A3AF8DB8A128
:104650002D913D914D915C91F8016089718982891C
:1046600093890E942139A98DBA8D2D913D914D914B
:104670005C910E94C2379B01AC01C701B6010E9448
:104680005037E9A1FAA16083718382839383FFEF9E
:104690008F1A9F0A005F1F4F20E1A21AB10834E071
:1046A0008316910409F091CFA98DBA8D5496BA8FD3
:1046B000A98FEB8DFC8D7096FC8FEB8F510178A24A
:1046C0006F8EF3E02F16310409F0E9CE8BA09CA089
:1046D00080E1880E911C8E01035F1F4FED8CFE8CD4
:1046E0009CE3E90EF11CF401B291A29192918291A6
:1046F0004F01F80180839183A283B3835101D12CB0
:10470000C12CD8014D905D906D907C90BFEFAB1A9D
:10471000BB0AE4E0CE0ED11CF4E0AF16B104E9F020
:10472000F801EC0DFD1D2081318142815381F7019B
:10473000EC0DFD1D60817181828193810E94213980
:104740009B01AC01C301B2010E945037D8016D93A7
:104750007D938D939C931397D4CFF7012081318162
:1047600042815381C301B2010E94C237D8016D93C7
:104770007D938D939C931397B1E02B1A31080450CD
:104780001109E4E1EE1AF108FFEF2F163F0609F0D8
:10479000AACF8DA19EA10E94743A8FA198A50E94D4
:1047A000743A89A59AA50E94743A8BA19CA10E9493
:1047B000743A8D8D9E8D0E94743A89819A81AB8165
:1047C000BC8180935E0490935F04A0936004B093D7
:1047D00061048D819E81AF81B8858093620490933E
:1047E0006304A0936404B093650489859A85AB85BE
:1047F000BC858093660490936704A0936804B0938B
:1048000069048D859E85AF85B88980936A049093ED
:104810006B04A0936C04B0936D04AA960FB6F89441
:10482000DEBF0FBECDBFDF91CF911F910F91FF90E3
:10483000EF90DF90CF90BF90AF909F908F907F9040
:104840006F905F904F903F902F9008951F920F921E
:104850000FB60F9211242F933F938F939F93AF9393
:10486000BF938091490490914A04A0914B04B09168
:104870004C043091480423E0230F2D3758F501965E
:10488000A11DB11D209348048093490490934A04CC
:10489000A0934B04B0934C0480914D0490914E042E
:1048A000A0914F04B09150040196A11DB11D8093B9
:1048B0004D0490934E04A0934F04B0935004BF91C5
:1048C000AF919F918F913F912F910F900FBE0F90BD
:1048D0001F90189526E8230F0296A11DB11DD2CF77
:1048E0001F920F920FB60F9211242F933F934F9365
:1048F0005F936F937F938F939F93AF93BF93EF9348
:10490000FF93E0910201F09103010995FF91EF916E
:10491000BF91AF919F918F917F916F915F914F91D7
:104920003F912F910F900FBE0F901F9018951F92DF
:104930000F920FB60F9211242F933F934F935F93D3
:104940006F937F938F939F93AF93BF93EF93FF9357
:10495000E0910001F09101010995FF91EF91BF9164
:10496000AF919F918F917F916F915F914F913F9107
:104970002F910F900FBE0F901F9018951F920F92BE
:104980000FB60F9211242F933F934F935F936F9322
:104990007F938F939F93AF93BF93EF93FF938091F8
:1049A000B900887F803609F44AC0F0F5883209F4EE
:1049B000A7C018F5803109F49BC0B8F4882309F426
:1049C000F9C0883009F494C0FF91EF91BF91AF9185
:1049D0009F918F917F916F915F914F913F912F9117
:1049E0000F900FBE0F901F901895883109F488C062
:1049F000803251F78093210414C0803409F49DC0A3
:104A000040F48033B9F38833F9F68093210485ECC0
:104A1000B0C0803509F485C0883509F496C0883463
:104A200099F60E948E1FD0CF883909F48CC038F5D2
:104A3000883729F050F4883611F0803729F683E062
:104A4000809322041092200457C0883809F47BC058
:104A5000803919F0803809F0B7CF80912004803276
:104A600008F071C0E091200481E08E0F8093200453
:104A70008091BB00F0E0E050FC4F80833DC0803B64
:104A800039F0E0F4803A09F479C0883A09F09CCF13
:104A900084E0809322041092FD031092FC03E091C5
:104AA000FA03F091FB0309958091FC0381110FC07B
:104AB00081E08093FC031092DA0309C0803C09F482
:104AC000A6CF883C09F4A3CF883B09F07DCFE091C5
:104AD000FD0381E08E0F8093FD03F0E0E652FC4F72
:104AE00080818093BB009091FD038091FC0329C0DD
:104AF000809147048093BB0085EC8093BC0064CF19
:104B00009091460480914504981758F5E091460429
:104B100081E08E0F80934604F0E0EB5DFB4F8081D7
:104B2000E9CFE091460481E08E0F809346048091A6
:104B3000BB00F0E0EB5DFB4F8083909146048091D9
:104B400045049817C8F285E8D8CFE091460481E083
:104B50008E0F809346048091BB00F0E0EB5DFB4F2D
:104B600080838091240481115CCF81E080932304B1
:104B700084EA8093BC001092220426CF85EC8093B7
:104B8000BC001092220480912004803230F4E09125
:104B90002004F0E0E050FC4F10826091200470E0AF
:104BA000E091FE03F091FF0380E094E009951092FC
:104BB00020040ACF1092210434CF1F920F920FB617
:104BC0000F9211242F933F934F935F936F937F9393
:104BD0008F939F93AF93BF93EF93FF938091D804EC
:104BE0009091D9048093B2008091890390918A03B7
:104BF000A0918B03B0918C030196A11DB11D8093F0
:104C0000890390938A03A0938B03B0938C038091C4
:104C1000890390918A03A0918B03B0918C034091FA
:104C2000DC045091DD046091DE047091DF04841790
:104C30009507A607B70710F18091880381111EC060
:104C400081E0809388038091890390918A03A091E9
:104C50008B03B0918C03841B950BA60BB70B809331
:104C6000890390938A03A0938B03B0938C03E09104
:104C7000DA04F091DB04099510928803FF91EF911B
:104C8000BF91AF919F918F917F916F915F914F9164
:104C90003F912F910F900FBE0F901F901895189570
:104CA000CF931092E3041092E20488EE93E0A0E028
:104CB000B0E08093E4049093E504A093E604B093FD
:104CC000E7048DEB91E09093E1048093E00410926F
:104CD000EF051092EE0584EA96E0909366068093C5
:104CE00065061092670610926806109208068FEC0F
:104CF00091E09093ED058093EC051092F1051092F0
:104D0000F005109205061092FC051092FD05109218
:104D1000FE051092FF058FEF8093060680930A062A
:104D2000EEE0F6E084E296E0CFEFC1938E179F07A6
:104D3000E1F784E79AE09093F5058093F40583E624
:104D40009BE09093F7058093F60587E490E19093BC
:104D5000F9058093F80585E998E09093FB05809329
:104D6000FA0530E020E040E069E080EF95E00E9445
:104D7000740A10923806109237068EEA96E09093E5
:104D80002506809324068CEE94E090932906809368
:104D9000280682E080932A0610922B061092440681
:104DA0001092620681E0809363068093640687ED2B
:104DB00091E0909327068093260680EF95E00E946D
:104DC000B20CE0912606F09127060280F381E02DD7
:104DD00080EF95E0099581E197E090933A06809302
:104DE0003906C0931906C0931A06C0931B06CF91CB
:104DF0000895CF93DF9300D0CDB7DEB7789484B514
:104E0000826084BD84B5816084BD85B5826085BDC6
:104E100085B5816085BD80916E00816080936E0054
:104E20001092810080918100826080938100809146
:104E300081008160809381008091800081608093F7
:104E400080008091B10084608093B1008091B000B7
:104E500081608093B00080917A00846080937A00B2
:104E600080917A00826080937A0080917A008160DC
:104E700080937A0080917A00806880937A00109203
:104E8000C10061E574E090E080E00E94BA2080916A
:104E90005104823010F0109251048091510481111C
:104EA0007AC06EE171E081E090E00E9487206AE1C3
:104EB00071E085E090E00E94872066E171E089E082
:104EC00090E00E94872069E371E08DE090E00E940D
:104ED000302066E371E081E190E00E94572065E1B7
:104EE00071E082E190E00E9457206DE071E083E183
:104EF00090E00E94872064E774E087E190E00E94E0
:104F0000872060E774E08BE190E00E946F2061E110
:104F100071E08CE190E00E9487206CE071E080E21B
:104F200090E00E9457206AE774E081E290E00E94DE
:104F30006F206BE774E082E290E00E946F2064E0F3
:104F400071E083E290E00E94302066E071E087E249
:104F500090E00E94302068E071E08BE290E00E94D7
:104F600030206AE071E08FE290E00E94302067E339
:104F700071E083E390E00E94302081E090E09A832A
:104F80008983BE016F5F7F4F90E080E00E943020F8
:104F900081E08093510480915104813009F06CC00C
:104FA0006EE171E081E090E00E94E2206AE171E050
:104FB00085E090E00E94E22066E171E089E090E007
:104FC0000E94E22069E371E08DE090E00E94CE2033
:104FD00066E371E081E190E00E94BA2065E171E052
:104FE00082E190E00E94BA206DE071E083E190E000
:104FF0000E94E22064E774E087E190E00E94E220F2
:1050000060E774E08BE190E00E94C42061E171E010
:105010008CE190E00E94E2206CE071E080E290E0A0
:105020000E94BA206AE774E081E290E00E94C42006
:105030006BE774E082E290E00E94C42064E071E0DB
:1050400083E290E00E94CE2066E071E087E290E08B
:105050000E94CE2068E071E08BE290E00E94CE20BA
:105060006AE071E08FE290E00E94CE2067E371E099
:1050700083E390E00E94CE2062E084E00E94F60785
:1050800062E083E00E94F60762E082E00E94F60799
:1050900060E080E10E94F60762E08EE00E94F60781
:1050A00060E084E10E94F60760E081E10E94F6077B
:1050B00061E088E00E94F60761E08AE00E94F6075E
:1050C00060E08AE00E94C80760E088E00E94C807AC
:1050D000E091F405F091F50530E020E040E06AE071
:1050E00080EF95E0099580EF95E00E94052080EF24
:1050F00095E00E94DB1F8111FACF60E080EF95E020
:105100000E94D80FE091F405F091F50530E020E021
:1051100040E06BE080EF95E009958DEC9BE090938B
:10512000660680936506E091F405F091F50530E0A0
:1051300020E0409115016EE080EF95E009958091A7
:105140007A04882309F4DBC283EB91E00E94130701
:1051500080917A00866080937A0080917A008860DE
:1051600080937A0078942FE836E1309303012093FE
:10517000020180916900837F886080936900E99AC9
:105180003093010120930001809169008C7F82603F
:1051900080936900E89A80EF95E00E94052002E381
:1051A00015E18AEB96E00E94210F009367061093A9
:1051B000680689EE91E00E94D21C80EF95E00E9483
:1051C000DB1F8111EECF11E01093C40488E592E05B
:1051D0009093C3048093C20488EC90E09093C10440
:1051E0008093C0040E94BA1B1093C40480E991E02C
:1051F0009093C3048093C2048CE291E09093C10425
:105200008093C0040E94BA1B1093C40482E890E00B
:105210009093C3048093C20488EE93E09093C104FA
:105220008093C0040E94BA1B1AE00E944F120E9491
:10523000F9110E94AB141150C1F70E94CC1180915A
:105240007004882309F45EC281E08093D7040E9431
:105250000821A1E92A2E312CA8950E94FB08009173
:105260005504109156042091570430915804601B46
:10527000710B820B930B603A71058105910508F45F
:1052800044C084E00E949F07892B71F580915404EB
:105290008F5F8093540481E08093C40480E590E0A4
:1052A0009093C3048093C20486E990E09093C10474
:1052B0008093C00480913B01813011F41092B504B9
:1052C0001092CC041092D4041092D3041092CE0405
:1052D0001092CD040E94FB0860935504709356040D
:1052E000809357049093580410915404153008F497
:1052F00015C280913B01813009F007C292E0909382
:105300003B0180935304109254048091BB0481119B
:1053100007C080EF95E00E94052081E08093BB04E8
:105320008091CC0481110C943E3580913B018130F9
:1053300009F0AAC58091B50410912F019091B6048F
:1053400091110C941D3681119CC480E594E00E945B
:10535000210F1E5E2091B3043091B4042336310531
:105360000CF486C410926706109368068091AD0411
:105370009091AE044091D704442369F04091B10468
:105380005091B2044C5F5F4F4930510520F4209199
:10539000AF043091B004281B390B121613060CF021
:1053A0006BC401969093AE048093AD048091AD04DC
:1053B0009091AE040E945E1F82EC90E00E94210F4B
:1053C000C090A904D090AA040D2C000CEE08FF0890
:1053D000209137013091380150E040E02C193D090F
:1053E0004E095F09A6E3B0E00E940C372091AB04A0
:1053F0003091AC04032E000C440B550B2C193D09C5
:105400004E095F090E94ED36DA01C9010396A11D1C
:10541000B11D8093A80460912F01645E2FE042E0EB
:105420000E94180E60912F01625E22E04DE380E041
:105430000E94990D409137015091380190912F01B0
:105440002091A804935E473381E0580708F041C4D7
:105450002B5F2093670690936806CA010E94D41CB4
:105460008AEB96E00E94210F80912F01882371F032
:105470009FEF980F90932F0192E3909367068C50C3
:105480008093680689EE91E00E94D21C8091A70467
:105490008823A1F18091A604873008F01CC48F5F97
:1054A0008093A6049091A5049F5F9093A5048730F4
:1054B000D9F410922E018091D704882351F0809165
:1054C000C804811106C067E371E083E390E00E94A5
:1054D00030208091D70491E089278093D704809170
:1054E00070008E7F809370000E94FB086093A1047F
:1054F0007093A2048093A3049093A40410912F01AD
:1055000073E0F72EF10E0EE0010F22E043E06F2D65
:105510008BE40E94630D21E043E06F2D86E50E943D
:10552000630D24E043E0602F8BE40E94630D28E0CC
:1055300043E0602F86E50E94630DE4E0FE2EF10E4D
:1055400000E02AE0412F6CE480EF95E00E94B60C69
:1055500041E1410F2AE06CE480EF95E00E94B60C37
:105560004AE06F2D88E40E94B50D4AE06F2D89E571
:105570000E94B50D80912F01825F9BE49093670696
:10558000809368068091D704882309F4C5C380916D
:10559000C8048111BEC387E093E00E94D21C109121
:1055A000A604173019F482E00E9429078091A5040F
:1055B00021E0280F220F41E0410F440F60912F019D
:1055C000681B685F00912E0180E5811B0E944F0ED1
:1055D0008091A604873019F481E00E942907809108
:1055E000D704882309F4E0C3E0909F04F090A0045E
:1055F0000E94FB0800919B0410919C0420919D0443
:1056000030919E044B015C01801A910AA20AB30AF0
:105610009701A4EDBEEF0E94AD392FEF37E040E0D7
:1056200050E00E94ED362E533E4F4F4F5F4F4427C0
:105630005527281539054A055B0508F047C00DE8D0
:1056400014E06BE9A62E64E0B62E29E030E0D70125
:105650000E94B5392FEF37E040E050E00E94ED3670
:1056600069017A01B3E0CB0ED11CE11CF11CDD24F1
:10567000EE24FF2426013701E1E04E1A51086108AB
:10568000710881E090E0A0E0B0E0F2E0CF16D10434
:10569000E104F1045CF00E947F36A30192010E94B4
:1056A000ED36DC01CB010196A11DB11DF8018193FE
:1056B0008F01AE16BF0629F70E94FB0860939B047A
:1056C00070939C0480939D0490939E040DE814E0D5
:1056D0005AE4D52ED8018D918D0190912F0140E291
:1056E000F42EF90EEF2CE81AEF1410F40C942C366B
:1056F000811115C3B12CCF2CFD2CED2C16C387EDD9
:1057000091E024CD1092D704A2CD873009F4FBCDCF
:1057100081E080933B0180935204F5CD0E94FB0809
:10572000C0905504D0905604E0905704F09058046F
:105730006C197D098E099F096530714081059105BD
:1057400008F4E3CD80913B01813091F4123009F0EF
:10575000DACD90918C049111D6CD9091B60491112F
:10576000D2CD8093A7041092C8041092C504CBCD6B
:10577000823009F04EC0113009F0C5CD809183040C
:10578000811104C084E080933B01BDCD8B3F11F0BB
:10579000813011F483E0F7CF8F3F11F0853011F4A1
:1057A00085E0F1CF8E3F11F0843011F486E0EBCF2D
:1057B0008C3F11F0823011F488E0E5CF8D3F19F075
:1057C000833009F0A0CD80E090E0A0E4B1E48093C4
:1057D0001E0190931F01A0932001B09321018DEC35
:1057E0009CECACE0B0E480931A0190931B01A09371
:1057F0001C01B0931D018AE999E9A9E9BFE38093EF
:10580000160190931701A0931801B093190187E036
:10581000BACF833009F052C0113009F074CD8091B5
:105820008104813081F024F481116DCD82E0ABCF11
:10583000823031F1833009F066CD8091800481118E
:1058400031C083E004C090918004911103C0809323
:10585000800459CD913009F056CD80917F0481119B
:1058600004C081E080937F044ECD6EE171E081E061
:1058700090E00E94872010927F041092800443CD14
:1058800080918004811102C082E0E1CF823009F072
:105890003ACD80917F04882321F36AE171E085E0AD
:1058A00090E0E7CF833009F02ECD80917F048823EC
:1058B000C1F266E171E089E090E0DBCF843069F508
:1058C000113009F020CD80917E04813049F0823082
:1058D00009F0AACF80917D04811115C082E004C037
:1058E00090917D04911103C080937D040CCD913083
:1058F00009F009CD69E371E08DE090E00E9430206D
:1059000010927D0400CD823009F0FDCC66E371E099
:1059100081E190E00E945720F3CF853009F052C01A
:10592000113009F0F0CC80917C048130F1F00CF45E
:105930007BCF823071F1833009F0E5CC809179041E
:105940008111E1CC80917B0491E0892780937B04D5
:105950006BE774E082E290E00E946F206BE774E0F6
:1059600082E290E00E94C420CECC80917904811123
:1059700004C081E080937904C6CC813009F0C3CCA7
:1059800065E171E082E190E00E9457201092790475
:10599000BACC90917904992369F3923009F0B3CC91
:1059A0006AE774E081E290E00E946F2080917A04BF
:1059B000882329F083EB91E00E941307E7CF87ED5E
:1059C00091E0FACF8630D1F5113009F09CCC80916E
:1059D0007804813099F00CF427CF823019F18330AC
:1059E00009F091CC90917304992369F0933009F0F8
:1059F0008ACC61E171E08CE190E00FC0809173048A
:105A0000811104C081E0809373047DCC813009F062
:105A10007ACC6DE071E083E190E00E9487201092E3
:105A2000730471CC90917304992369F3923009F057
:105A30006ACC64E774E087E190E0EFCF883009F04A
:105A40009BC0113009F05FCC80917204813009F461
:105A50006FC00CF4E9CE823009F47DC0833009F0C8
:105A600052CC90916F04992309F466C0933009F0E9
:105A70004ACC80917104882309F46AC0C12CD12CCE
:105A80007601B12CA12C10E000E0A8952601370189
:105A9000FAE07594679457944794FA95D1F74201C8
:105AA000C2018A199B090597F0F080EF95E00E94EA
:105AB000052092E390936706A0E1A0936806C401D5
:105AC0000E94D41CBBE4B0936706E0E1E093680653
:105AD00081EF91E00E94D21C80EF95E00E94DB1FD5
